{
  "contractName": "DappTokenSale",
  "abi": [
    {
      "inputs": [
        {
          "internalType": "contract DappToken",
          "name": "_tokenContract",
          "type": "address"
        },
        {
          "internalType": "uint256",
          "name": "_tokenPrice",
          "type": "uint256"
        }
      ],
      "stateMutability": "nonpayable",
      "type": "constructor"
    },
    {
      "anonymous": false,
      "inputs": [
        {
          "indexed": false,
          "internalType": "address",
          "name": "_to",
          "type": "address"
        },
        {
          "indexed": false,
          "internalType": "uint256",
          "name": "_amount",
          "type": "uint256"
        }
      ],
      "name": "Sell",
      "type": "event"
    },
    {
      "inputs": [],
      "name": "tokenContract",
      "outputs": [
        {
          "internalType": "contract DappToken",
          "name": "",
          "type": "address"
        }
      ],
      "stateMutability": "view",
      "type": "function"
    },
    {
      "inputs": [],
      "name": "tokenPrice",
      "outputs": [
        {
          "internalType": "uint256",
          "name": "",
          "type": "uint256"
        }
      ],
      "stateMutability": "view",
      "type": "function"
    },
    {
      "inputs": [],
      "name": "tokenSold",
      "outputs": [
        {
          "internalType": "uint256",
          "name": "",
          "type": "uint256"
        }
      ],
      "stateMutability": "view",
      "type": "function"
    },
    {
      "inputs": [
        {
          "internalType": "uint256",
          "name": "_amount",
          "type": "uint256"
        }
      ],
      "name": "buyToken",
      "outputs": [],
      "stateMutability": "payable",
      "type": "function"
    },
    {
      "inputs": [],
      "name": "endSale",
      "outputs": [],
      "stateMutability": "nonpayable",
      "type": "function"
    }
  ],
  "bytecode": "0x608060405234801561001057600080fd5b50604051610a57380380610a5783398181016040528101906100329190610174565b336000806101000a81548173ffffffffffffffffffffffffffffffffffffffff021916908373ffffffffffffffffffffffffffffffffffffffff16021790555080600281905550600060038190555081600160006101000a81548173ffffffffffffffffffffffffffffffffffffffff021916908373ffffffffffffffffffffffffffffffffffffffff16021790555050506101b4565b600080fd5b600073ffffffffffffffffffffffffffffffffffffffff82169050919050565b60006100f9826100ce565b9050919050565b600061010b826100ee565b9050919050565b61011b81610100565b811461012657600080fd5b50565b60008151905061013881610112565b92915050565b6000819050919050565b6101518161013e565b811461015c57600080fd5b50565b60008151905061016e81610148565b92915050565b6000806040838503121561018b5761018a6100c9565b5b600061019985828601610129565b92505060206101aa8582860161015f565b9150509250929050565b610894806101c36000396000f3fe60806040526004361061004a5760003560e01c80632d296bf11461004f578063380d831b1461006b578063519ee19e1461008257806355a373d6146100ad5780637ff9b596146100d8575b600080fd5b61006960048036038101906100649190610522565b610103565b005b34801561007757600080fd5b506100806102c0565b005b34801561008e57600080fd5b5061009761047e565b6040516100a4919061055e565b60405180910390f35b3480156100b957600080fd5b506100c2610484565b6040516100cf91906105f8565b60405180910390f35b3480156100e457600080fd5b506100ed6104aa565b6040516100fa919061055e565b60405180910390f35b61010f816002546104b0565b341461011a57600080fd5b80600160009054906101000a900473ffffffffffffffffffffffffffffffffffffffff1673ffffffffffffffffffffffffffffffffffffffff166370a08231306040518263ffffffff1660e01b81526004016101769190610634565b602060405180830381865afa158015610193573d6000803e3d6000fd5b505050506040513d601f19601f820116820180604052508101906101b79190610664565b10156101c257600080fd5b600160009054906101000a900473ffffffffffffffffffffffffffffffffffffffff1673ffffffffffffffffffffffffffffffffffffffff1663a9059cbb33836040518363ffffffff1660e01b815260040161021f929190610691565b6020604051808303816000875af115801561023e573d6000803e3d6000fd5b505050506040513d601f19601f8201168201806040525081019061026291906106f2565b61026b57600080fd5b806003600082825461027d919061074e565b925050819055507f5e5e995ce3133561afceaa51a9a154d5db228cd7525d34df5185582c18d3df0933826040516102b5929190610691565b60405180910390a150565b60008054906101000a900473ffffffffffffffffffffffffffffffffffffffff1673ffffffffffffffffffffffffffffffffffffffff163373ffffffffffffffffffffffffffffffffffffffff161461031857600080fd5b600160009054906101000a900473ffffffffffffffffffffffffffffffffffffffff1673ffffffffffffffffffffffffffffffffffffffff1663a9059cbb60008054906101000a900473ffffffffffffffffffffffffffffffffffffffff16600160009054906101000a900473ffffffffffffffffffffffffffffffffffffffff1673ffffffffffffffffffffffffffffffffffffffff166370a08231306040518263ffffffff1660e01b81526004016103d29190610634565b602060405180830381865afa1580156103ef573d6000803e3d6000fd5b505050506040513d601f19601f820116820180604052508101906104139190610664565b6040518363ffffffff1660e01b8152600401610430929190610691565b6020604051808303816000875af115801561044f573d6000803e3d6000fd5b505050506040513d601f19601f8201168201806040525081019061047391906106f2565b61047c57600080fd5b565b60035481565b600160009054906101000a900473ffffffffffffffffffffffffffffffffffffffff1681565b60025481565b6000808214806104d85750828283856104c991906107a4565b9250826104d6919061082d565b145b6104e157600080fd5b92915050565b600080fd5b6000819050919050565b6104ff816104ec565b811461050a57600080fd5b50565b60008135905061051c816104f6565b92915050565b600060208284031215610538576105376104e7565b5b60006105468482850161050d565b91505092915050565b610558816104ec565b82525050565b6000602082019050610573600083018461054f565b92915050565b600073ffffffffffffffffffffffffffffffffffffffff82169050919050565b6000819050919050565b60006105be6105b96105b484610579565b610599565b610579565b9050919050565b60006105d0826105a3565b9050919050565b60006105e2826105c5565b9050919050565b6105f2816105d7565b82525050565b600060208201905061060d60008301846105e9565b92915050565b600061061e82610579565b9050919050565b61062e81610613565b82525050565b60006020820190506106496000830184610625565b92915050565b60008151905061065e816104f6565b92915050565b60006020828403121561067a576106796104e7565b5b60006106888482850161064f565b91505092915050565b60006040820190506106a66000830185610625565b6106b3602083018461054f565b9392505050565b60008115159050919050565b6106cf816106ba565b81146106da57600080fd5b50565b6000815190506106ec816106c6565b92915050565b600060208284031215610708576107076104e7565b5b6000610716848285016106dd565b91505092915050565b7f4e487b7100000000000000000000000000000000000000000000000000000000600052601160045260246000fd5b6000610759826104ec565b9150610764836104ec565b9250827fffffffffffffffffffffffffffffffffffffffffffffffffffffffffffffffff038211156107995761079861071f565b5b828201905092915050565b60006107af826104ec565b91506107ba836104ec565b9250817fffffffffffffffffffffffffffffffffffffffffffffffffffffffffffffffff04831182151516156107f3576107f261071f565b5b828202905092915050565b7f4e487b7100000000000000000000000000000000000000000000000000000000600052601260045260246000fd5b6000610838826104ec565b9150610843836104ec565b925082610853576108526107fe565b5b82820490509291505056fea2646970667358221220af7923156c308046cd449c0518722a2147dac5e703d7fe38db62d787a5df246164736f6c634300080a0033",
  "immutableReferences": {},
  "source": "pragma solidity >=0.4.22 <0.9.0;\r\nimport \"./DappToken.sol\";\r\n\r\ncontract DappTokenSale {\r\n    address admin;\r\n    DappToken public tokenContract;\r\n    uint256 public tokenPrice;\r\n    uint256 public tokenSold;\r\n\r\n    event Sell(address _to, uint256 _amount);\r\n\r\n    constructor(DappToken _tokenContract, uint256 _tokenPrice) public {\r\n        admin = msg.sender;\r\n        tokenPrice = _tokenPrice;\r\n        tokenSold = 0;\r\n        tokenContract = _tokenContract;\r\n    }\r\n\r\n    function multiply(uint x, uint y) internal pure returns (uint z) {\r\n        require(y == 0 || (z = x * y) / y == x);\r\n    }\r\n\r\n    function buyToken(uint256 _amount) public payable {\r\n        require(msg.value == multiply(_amount, tokenPrice));\r\n        require(tokenContract.balanceOf(address(this)) >= _amount);\r\n        require(tokenContract.transfer(msg.sender, _amount));\r\n\r\n        tokenSold += _amount;\r\n        emit Sell(msg.sender, _amount);\r\n    }\r\n\r\n    function endSale() public {\r\n        require(msg.sender == admin);\r\n        require(tokenContract.transfer(admin, tokenContract.balanceOf(address(this))));\r\n\r\n        // Just transfer the balance to the admin\r\n        // admin.transfer(address(this).balance);\r\n    }\r\n}",
  "sourcePath": "D:\\git_history\\webdev917\\testnet\\contracts\\DappTokenSale.sol",
  "compiler": {
    "name": "solc",
    "version": "0.8.10+commit.fc410830.Emscripten.clang"
  },
  "schemaVersion": "3.4.3",
  "updatedAt": "2021-12-03T23:24:29.607Z",
  "devdoc": {
    "kind": "dev",
    "methods": {},
    "version": 1
  },
  "userdoc": {
    "kind": "user",
    "methods": {},
    "version": 1
  }
}