{
  "contractName": "TheNewResistance",
  "abi": [
    {
      "inputs": [
        {
          "internalType": "string",
          "name": "name",
          "type": "string"
        },
        {
          "internalType": "string",
          "name": "symbol",
          "type": "string"
        },
        {
          "internalType": "string",
          "name": "baseTokenURI",
          "type": "string"
        }
      ],
      "stateMutability": "nonpayable",
      "type": "constructor"
    },
    {
      "anonymous": false,
      "inputs": [
        {
          "indexed": true,
          "internalType": "address",
          "name": "owner",
          "type": "address"
        },
        {
          "indexed": true,
          "internalType": "address",
          "name": "approved",
          "type": "address"
        },
        {
          "indexed": true,
          "internalType": "uint256",
          "name": "tokenId",
          "type": "uint256"
        }
      ],
      "name": "Approval",
      "type": "event"
    },
    {
      "anonymous": false,
      "inputs": [
        {
          "indexed": true,
          "internalType": "address",
          "name": "owner",
          "type": "address"
        },
        {
          "indexed": true,
          "internalType": "address",
          "name": "operator",
          "type": "address"
        },
        {
          "indexed": false,
          "internalType": "bool",
          "name": "approved",
          "type": "bool"
        }
      ],
      "name": "ApprovalForAll",
      "type": "event"
    },
    {
      "anonymous": false,
      "inputs": [
        {
          "indexed": true,
          "internalType": "address",
          "name": "previousOwner",
          "type": "address"
        },
        {
          "indexed": true,
          "internalType": "address",
          "name": "newOwner",
          "type": "address"
        }
      ],
      "name": "OwnershipTransferred",
      "type": "event"
    },
    {
      "anonymous": false,
      "inputs": [
        {
          "indexed": true,
          "internalType": "address",
          "name": "from",
          "type": "address"
        },
        {
          "indexed": true,
          "internalType": "address",
          "name": "to",
          "type": "address"
        },
        {
          "indexed": true,
          "internalType": "uint256",
          "name": "tokenId",
          "type": "uint256"
        }
      ],
      "name": "Transfer",
      "type": "event"
    },
    {
      "inputs": [
        {
          "internalType": "address",
          "name": "to",
          "type": "address"
        },
        {
          "internalType": "uint256",
          "name": "tokenId",
          "type": "uint256"
        }
      ],
      "name": "approve",
      "outputs": [],
      "stateMutability": "nonpayable",
      "type": "function"
    },
    {
      "inputs": [
        {
          "internalType": "address",
          "name": "owner",
          "type": "address"
        }
      ],
      "name": "balanceOf",
      "outputs": [
        {
          "internalType": "uint256",
          "name": "",
          "type": "uint256"
        }
      ],
      "stateMutability": "view",
      "type": "function",
      "constant": true
    },
    {
      "inputs": [
        {
          "internalType": "uint256",
          "name": "tokenId",
          "type": "uint256"
        }
      ],
      "name": "burn",
      "outputs": [],
      "stateMutability": "nonpayable",
      "type": "function"
    },
    {
      "inputs": [
        {
          "internalType": "uint256",
          "name": "tokenId",
          "type": "uint256"
        }
      ],
      "name": "getApproved",
      "outputs": [
        {
          "internalType": "address",
          "name": "",
          "type": "address"
        }
      ],
      "stateMutability": "view",
      "type": "function",
      "constant": true
    },
    {
      "inputs": [
        {
          "internalType": "address",
          "name": "owner",
          "type": "address"
        },
        {
          "internalType": "address",
          "name": "operator",
          "type": "address"
        }
      ],
      "name": "isApprovedForAll",
      "outputs": [
        {
          "internalType": "bool",
          "name": "",
          "type": "bool"
        }
      ],
      "stateMutability": "view",
      "type": "function",
      "constant": true
    },
    {
      "inputs": [],
      "name": "name",
      "outputs": [
        {
          "internalType": "string",
          "name": "",
          "type": "string"
        }
      ],
      "stateMutability": "view",
      "type": "function",
      "constant": true
    },
    {
      "inputs": [],
      "name": "owner",
      "outputs": [
        {
          "internalType": "address",
          "name": "",
          "type": "address"
        }
      ],
      "stateMutability": "view",
      "type": "function",
      "constant": true
    },
    {
      "inputs": [
        {
          "internalType": "uint256",
          "name": "tokenId",
          "type": "uint256"
        }
      ],
      "name": "ownerOf",
      "outputs": [
        {
          "internalType": "address",
          "name": "",
          "type": "address"
        }
      ],
      "stateMutability": "view",
      "type": "function",
      "constant": true
    },
    {
      "inputs": [],
      "name": "renounceOwnership",
      "outputs": [],
      "stateMutability": "nonpayable",
      "type": "function"
    },
    {
      "inputs": [
        {
          "internalType": "address",
          "name": "from",
          "type": "address"
        },
        {
          "internalType": "address",
          "name": "to",
          "type": "address"
        },
        {
          "internalType": "uint256",
          "name": "tokenId",
          "type": "uint256"
        }
      ],
      "name": "safeTransferFrom",
      "outputs": [],
      "stateMutability": "nonpayable",
      "type": "function"
    },
    {
      "inputs": [
        {
          "internalType": "address",
          "name": "from",
          "type": "address"
        },
        {
          "internalType": "address",
          "name": "to",
          "type": "address"
        },
        {
          "internalType": "uint256",
          "name": "tokenId",
          "type": "uint256"
        },
        {
          "internalType": "bytes",
          "name": "_data",
          "type": "bytes"
        }
      ],
      "name": "safeTransferFrom",
      "outputs": [],
      "stateMutability": "nonpayable",
      "type": "function"
    },
    {
      "inputs": [
        {
          "internalType": "address",
          "name": "operator",
          "type": "address"
        },
        {
          "internalType": "bool",
          "name": "approved",
          "type": "bool"
        }
      ],
      "name": "setApprovalForAll",
      "outputs": [],
      "stateMutability": "nonpayable",
      "type": "function"
    },
    {
      "inputs": [],
      "name": "symbol",
      "outputs": [
        {
          "internalType": "string",
          "name": "",
          "type": "string"
        }
      ],
      "stateMutability": "view",
      "type": "function",
      "constant": true
    },
    {
      "inputs": [
        {
          "internalType": "uint256",
          "name": "index",
          "type": "uint256"
        }
      ],
      "name": "tokenByIndex",
      "outputs": [
        {
          "internalType": "uint256",
          "name": "",
          "type": "uint256"
        }
      ],
      "stateMutability": "view",
      "type": "function",
      "constant": true
    },
    {
      "inputs": [
        {
          "internalType": "address",
          "name": "owner",
          "type": "address"
        },
        {
          "internalType": "uint256",
          "name": "index",
          "type": "uint256"
        }
      ],
      "name": "tokenOfOwnerByIndex",
      "outputs": [
        {
          "internalType": "uint256",
          "name": "",
          "type": "uint256"
        }
      ],
      "stateMutability": "view",
      "type": "function",
      "constant": true
    },
    {
      "inputs": [
        {
          "internalType": "uint256",
          "name": "tokenId",
          "type": "uint256"
        }
      ],
      "name": "tokenURI",
      "outputs": [
        {
          "internalType": "string",
          "name": "",
          "type": "string"
        }
      ],
      "stateMutability": "view",
      "type": "function",
      "constant": true
    },
    {
      "inputs": [],
      "name": "totalSupply",
      "outputs": [
        {
          "internalType": "uint256",
          "name": "",
          "type": "uint256"
        }
      ],
      "stateMutability": "view",
      "type": "function",
      "constant": true
    },
    {
      "inputs": [
        {
          "internalType": "address",
          "name": "from",
          "type": "address"
        },
        {
          "internalType": "address",
          "name": "to",
          "type": "address"
        },
        {
          "internalType": "uint256",
          "name": "tokenId",
          "type": "uint256"
        }
      ],
      "name": "transferFrom",
      "outputs": [],
      "stateMutability": "nonpayable",
      "type": "function"
    },
    {
      "inputs": [
        {
          "internalType": "address",
          "name": "newOwner",
          "type": "address"
        }
      ],
      "name": "transferOwnership",
      "outputs": [],
      "stateMutability": "nonpayable",
      "type": "function"
    },
    {
      "inputs": [],
      "name": "ToDevs",
      "outputs": [],
      "stateMutability": "nonpayable",
      "type": "function"
    },
    {
      "inputs": [
        {
          "internalType": "address",
          "name": "to",
          "type": "address"
        },
        {
          "internalType": "uint256",
          "name": "amount",
          "type": "uint256"
        }
      ],
      "name": "mint",
      "outputs": [],
      "stateMutability": "payable",
      "type": "function",
      "payable": true
    },
    {
      "inputs": [],
      "name": "withdrawFunds",
      "outputs": [],
      "stateMutability": "nonpayable",
      "type": "function"
    },
    {
      "inputs": [
        {
          "internalType": "string",
          "name": "baseTokenURI",
          "type": "string"
        }
      ],
      "name": "setBaseURI",
      "outputs": [],
      "stateMutability": "nonpayable",
      "type": "function"
    },
    {
      "inputs": [
        {
          "internalType": "uint256",
          "name": "mintPrice",
          "type": "uint256"
        }
      ],
      "name": "startSale",
      "outputs": [],
      "stateMutability": "nonpayable",
      "type": "function"
    },
    {
      "inputs": [
        {
          "internalType": "bytes4",
          "name": "interfaceId",
          "type": "bytes4"
        }
      ],
      "name": "supportsInterface",
      "outputs": [
        {
          "internalType": "bool",
          "name": "",
          "type": "bool"
        }
      ],
      "stateMutability": "view",
      "type": "function",
      "constant": true
    },
    {
      "inputs": [],
      "name": "getAmountMinted",
      "outputs": [
        {
          "internalType": "uint256",
          "name": "",
          "type": "uint256"
        }
      ],
      "stateMutability": "view",
      "type": "function",
      "constant": true
    },
    {
      "inputs": [],
      "name": "getMaxSupply",
      "outputs": [
        {
          "internalType": "uint256",
          "name": "",
          "type": "uint256"
        }
      ],
      "stateMutability": "pure",
      "type": "function",
      "constant": true
    },
    {
      "inputs": [],
      "name": "getMintPrice",
      "outputs": [
        {
          "internalType": "uint256",
          "name": "",
          "type": "uint256"
        }
      ],
      "stateMutability": "view",
      "type": "function",
      "constant": true
    },
    {
      "inputs": [],
      "name": "hasSaleStarted",
      "outputs": [
        {
          "internalType": "bool",
          "name": "",
          "type": "bool"
        }
      ],
      "stateMutability": "view",
      "type": "function",
      "constant": true
    }
  ],
  "bytecode": "0x60806040526000600b55600061271c55600061271d55731511637d85e85e4ef4c162844a0a3d4d4fe2e5a461271e60006101000a81548173ffffffffffffffffffffffffffffffffffffffff021916908373ffffffffffffffffffffffffffffffffffffffff16021790555073630ce4d80ef8712dffd1a38fe390683b675ab48a61271f60006101000a81548173ffffffffffffffffffffffffffffffffffffffff021916908373ffffffffffffffffffffffffffffffffffffffff16021790555073c4c746e4783e2ecd4610dc798874a8a765a724c061272060006101000a81548173ffffffffffffffffffffffffffffffffffffffff021916908373ffffffffffffffffffffffffffffffffffffffff160217905550600061272260006101000a81548160ff021916908315150217905550600061272260016101000a81548160ff0219169083151502179055506000612723553480156200016257600080fd5b5060405162004f1238038062004f1283398181016040528101906200018891906200051c565b82828160009080519060200190620001a2929190620002cf565b508060019080519060200190620001bb929190620002cf565b505050620001de620001d26200020160201b60201c565b6200020960201b60201c565b806127219080519060200190620001f7929190620002cf565b505050506200063a565b600033905090565b6000600a60009054906101000a900473ffffffffffffffffffffffffffffffffffffffff16905081600a60006101000a81548173ffffffffffffffffffffffffffffffffffffffff021916908373ffffffffffffffffffffffffffffffffffffffff1602179055508173ffffffffffffffffffffffffffffffffffffffff168173ffffffffffffffffffffffffffffffffffffffff167f8be0079c531659141344cd1fd0a4f28419497f9722a3daafe3b4186f6b6457e060405160405180910390a35050565b828054620002dd9062000604565b90600052602060002090601f0160209004810192826200030157600085556200034d565b82601f106200031c57805160ff19168380011785556200034d565b828001600101855582156200034d579182015b828111156200034c5782518255916020019190600101906200032f565b5b5090506200035c919062000360565b5090565b5b808211156200037b57600081600090555060010162000361565b5090565b6000604051905090565b600080fd5b600080fd5b600080fd5b600080fd5b6000601f19601f8301169050919050565b7f4e487b7100000000000000000000000000000000000000000000000000000000600052604160045260246000fd5b620003e8826200039d565b810181811067ffffffffffffffff821117156200040a5762000409620003ae565b5b80604052505050565b60006200041f6200037f565b90506200042d8282620003dd565b919050565b600067ffffffffffffffff82111562000450576200044f620003ae565b5b6200045b826200039d565b9050602081019050919050565b60005b83811015620004885780820151818401526020810190506200046b565b8381111562000498576000848401525b50505050565b6000620004b5620004af8462000432565b62000413565b905082815260208101848484011115620004d457620004d362000398565b5b620004e184828562000468565b509392505050565b600082601f83011262000501576200050062000393565b5b8151620005138482602086016200049e565b91505092915050565b60008060006060848603121562000538576200053762000389565b5b600084015167ffffffffffffffff8111156200055957620005586200038e565b5b6200056786828701620004e9565b935050602084015167ffffffffffffffff8111156200058b576200058a6200038e565b5b6200059986828701620004e9565b925050604084015167ffffffffffffffff811115620005bd57620005bc6200038e565b5b620005cb86828701620004e9565b9150509250925092565b7f4e487b7100000000000000000000000000000000000000000000000000000000600052602260045260246000fd5b600060028204905060018216806200061d57607f821691505b60208210811415620006345762000633620005d5565b5b50919050565b6148c8806200064a6000396000f3fe6080604052600436106101c25760003560e01c80634f6ccce7116100f7578063a22cb46511610095578063ca031f8211610064578063ca031f8214610631578063e777df2014610648578063e985e9c514610673578063f2fde38b146106b0576101c2565b8063a22cb46514610577578063a7f93ebd146105a0578063b88d4fde146105cb578063c87b56dd146105f4576101c2565b806370a08231116100d157806370a08231146104cd578063715018a61461050a5780638da5cb5b1461052157806395d89b411461054c576101c2565b80634f6ccce71461042a57806355f804b3146104675780636352211e14610490576101c2565b806323b872dd1161016457806340c10f191161013e57806340c10f191461039157806342842e0e146103ad57806342966c68146103d65780634c0f38c2146103ff576101c2565b806323b872dd1461031457806324600fc31461033d5780632f745c5914610354576101c2565b8063095ea7b3116101a0578063095ea7b31461026c5780630e3ab61d1461029557806318160ddd146102be5780631c8b232d146102e9576101c2565b806301ffc9a7146101c757806306fdde0314610204578063081812fc1461022f575b600080fd5b3480156101d357600080fd5b506101ee60048036038101906101e99190612e37565b6106d9565b6040516101fb9190612e7f565b60405180910390f35b34801561021057600080fd5b506102196106eb565b6040516102269190612f33565b60405180910390f35b34801561023b57600080fd5b5061025660048036038101906102519190612f8b565b61077d565b6040516102639190612ff9565b60405180910390f35b34801561027857600080fd5b50610293600480360381019061028e9190613040565b610802565b005b3480156102a157600080fd5b506102bc60048036038101906102b79190612f8b565b61091a565b005b3480156102ca57600080fd5b506102d3610ab4565b6040516102e0919061308f565b60405180910390f35b3480156102f557600080fd5b506102fe610ac1565b60405161030b9190612e7f565b60405180910390f35b34801561032057600080fd5b5061033b600480360381019061033691906130aa565b610ad9565b005b34801561034957600080fd5b50610352610b39565b005b34801561036057600080fd5b5061037b60048036038101906103769190613040565b610c9d565b604051610388919061308f565b60405180910390f35b6103ab60048036038101906103a69190613040565b610d42565b005b3480156103b957600080fd5b506103d460048036038101906103cf91906130aa565b610f5f565b005b3480156103e257600080fd5b506103fd60048036038101906103f89190612f8b565b610f7f565b005b34801561040b57600080fd5b50610414610fdb565b604051610421919061308f565b60405180910390f35b34801561043657600080fd5b50610451600480360381019061044c9190612f8b565b610fe5565b60405161045e919061308f565b60405180910390f35b34801561047357600080fd5b5061048e60048036038101906104899190613232565b611056565b005b34801561049c57600080fd5b506104b760048036038101906104b29190612f8b565b611160565b6040516104c49190612ff9565b60405180910390f35b3480156104d957600080fd5b506104f460048036038101906104ef919061327b565b611212565b604051610501919061308f565b60405180910390f35b34801561051657600080fd5b5061051f6112ca565b005b34801561052d57600080fd5b50610536611352565b6040516105439190612ff9565b60405180910390f35b34801561055857600080fd5b5061056161137c565b60405161056e9190612f33565b60405180910390f35b34801561058357600080fd5b5061059e600480360381019061059991906132d4565b61140e565b005b3480156105ac57600080fd5b506105b5611424565b6040516105c2919061308f565b60405180910390f35b3480156105d757600080fd5b506105f260048036038101906105ed91906133b5565b61142f565b005b34801561060057600080fd5b5061061b60048036038101906106169190612f8b565b611491565b6040516106289190612f33565b60405180910390f35b34801561063d57600080fd5b50610646611538565b005b34801561065457600080fd5b5061065d6116de565b60405161066a919061308f565b60405180910390f35b34801561067f57600080fd5b5061069a60048036038101906106959190613438565b6116e9565b6040516106a79190612e7f565b60405180910390f35b3480156106bc57600080fd5b506106d760048036038101906106d2919061327b565b61177d565b005b60006106e482611875565b9050919050565b6060600080546106fa906134a7565b80601f0160208091040260200160405190810160405280929190818152602001828054610726906134a7565b80156107735780601f1061074857610100808354040283529160200191610773565b820191906000526020600020905b81548152906001019060200180831161075657829003601f168201915b5050505050905090565b6000610788826118ef565b6107c7576040517f08c379a00000000000000000000000000000000000000000000000000000000081526004016107be9061354b565b60405180910390fd5b6004600083815260200190815260200160002060009054906101000a900473ffffffffffffffffffffffffffffffffffffffff169050919050565b600061080d82611160565b90508073ffffffffffffffffffffffffffffffffffffffff168373ffffffffffffffffffffffffffffffffffffffff16141561087e576040517f08c379a0000000000000000000000000000000000000000000000000000000008152600401610875906135dd565b60405180910390fd5b8073ffffffffffffffffffffffffffffffffffffffff1661089d61195b565b73ffffffffffffffffffffffffffffffffffffffff1614806108cc57506108cb816108c661195b565b6116e9565b5b61090b576040517f08c379a00000000000000000000000000000000000000000000000000000000081526004016109029061366f565b60405180910390fd5b6109158383611963565b505050565b61092261195b565b73ffffffffffffffffffffffffffffffffffffffff16610940611352565b73ffffffffffffffffffffffffffffffffffffffff1614610996576040517f08c379a000000000000000000000000000000000000000000000000000000000815260040161098d906136db565b60405180910390fd5b6000151561272260009054906101000a900460ff161515146109ed576040517f08c379a00000000000000000000000000000000000000000000000000000000081526004016109e490613747565b60405180910390fd5b6001151561272260019054906101000a900460ff16151514610a44576040517f08c379a0000000000000000000000000000000000000000000000000000000008152600401610a3b906137b3565b60405180910390fd5b66d529ae9e8600008111610a8d576040517f08c379a0000000000000000000000000000000000000000000000000000000008152600401610a849061381f565b60405180910390fd5b8061271d81905550600161272260006101000a81548160ff02191690831515021790555050565b6000600880549050905090565b600061272260009054906101000a900460ff16905090565b610aea610ae461195b565b82611a1c565b610b29576040517f08c379a0000000000000000000000000000000000000000000000000000000008152600401610b20906138b1565b60405180910390fd5b610b34838383611afa565b505050565b6000600247610b48919061392f565b90506000600282610b59919061392f565b905061271e60009054906101000a900473ffffffffffffffffffffffffffffffffffffffff1673ffffffffffffffffffffffffffffffffffffffff166108fc839081150290604051600060405180830381858888f19350505050158015610bc4573d6000803e3d6000fd5b5061271f60009054906101000a900473ffffffffffffffffffffffffffffffffffffffff1673ffffffffffffffffffffffffffffffffffffffff166108fc829081150290604051600060405180830381858888f19350505050158015610c2e573d6000803e3d6000fd5b5061272060009054906101000a900473ffffffffffffffffffffffffffffffffffffffff1673ffffffffffffffffffffffffffffffffffffffff166108fc829081150290604051600060405180830381858888f19350505050158015610c98573d6000803e3d6000fd5b505050565b6000610ca883611212565b8210610ce9576040517f08c379a0000000000000000000000000000000000000000000000000000000008152600401610ce0906139d2565b60405180910390fd5b600660008473ffffffffffffffffffffffffffffffffffffffff1673ffffffffffffffffffffffffffffffffffffffff168152602001908152602001600020600083815260200190815260200160002054905092915050565b6001151561272260009054906101000a900460ff16151514610d99576040517f08c379a0000000000000000000000000000000000000000000000000000000008152600401610d9090613a3e565b60405180910390fd5b61271061271c5410610de0576040517f08c379a0000000000000000000000000000000000000000000000000000000008152600401610dd790613aaa565b60405180910390fd5b60008111610e23576040517f08c379a0000000000000000000000000000000000000000000000000000000008152600401610e1a90613b16565b60405180910390fd5b6014811115610e67576040517f08c379a0000000000000000000000000000000000000000000000000000000008152600401610e5e90613b82565b60405180910390fd5b61271c54612710610e789190613ba2565b811115610eba576040517f08c379a0000000000000000000000000000000000000000000000000000000008152600401610eb190613c22565b60405180910390fd5b8061271d54610ec99190613c42565b341015610f0b576040517f08c379a0000000000000000000000000000000000000000000000000000000008152600401610f0290613ce8565b60405180910390fd5b600080600090505b82811015610f5957610f23611d56565b9150610f2f8483611eb0565b600161271c54610f3f9190613d08565b61271c819055508080610f5190613d5e565b915050610f13565b50505050565b610f7a8383836040518060200160405280600081525061142f565b505050565b610f90610f8a61195b565b82611a1c565b610fcf576040517f08c379a0000000000000000000000000000000000000000000000000000000008152600401610fc690613e19565b60405180910390fd5b610fd88161207e565b50565b6000612710905090565b6000610fef610ab4565b8210611030576040517f08c379a000000000000000000000000000000000000000000000000000000000815260040161102790613eab565b60405180910390fd5b6008828154811061104457611043613ecb565b5b90600052602060002001549050919050565b61105e61195b565b73ffffffffffffffffffffffffffffffffffffffff1661107c611352565b73ffffffffffffffffffffffffffffffffffffffff16146110d2576040517f08c379a00000000000000000000000000000000000000000000000000000000081526004016110c9906136db565b60405180910390fd5b6000151561272260009054906101000a900460ff16151514611129576040517f08c379a000000000000000000000000000000000000000000000000000000000815260040161112090613f6c565b60405180910390fd5b806127219080519060200190611140929190612d28565b50600161272260016101000a81548160ff02191690831515021790555050565b6000806002600084815260200190815260200160002060009054906101000a900473ffffffffffffffffffffffffffffffffffffffff169050600073ffffffffffffffffffffffffffffffffffffffff168173ffffffffffffffffffffffffffffffffffffffff161415611209576040517f08c379a000000000000000000000000000000000000000000000000000000000815260040161120090613ffe565b60405180910390fd5b80915050919050565b60008073ffffffffffffffffffffffffffffffffffffffff168273ffffffffffffffffffffffffffffffffffffffff161415611283576040517f08c379a000000000000000000000000000000000000000000000000000000000815260040161127a90614090565b60405180910390fd5b600360008373ffffffffffffffffffffffffffffffffffffffff1673ffffffffffffffffffffffffffffffffffffffff168152602001908152602001600020549050919050565b6112d261195b565b73ffffffffffffffffffffffffffffffffffffffff166112f0611352565b73ffffffffffffffffffffffffffffffffffffffff1614611346576040517f08c379a000000000000000000000000000000000000000000000000000000000815260040161133d906136db565b60405180910390fd5b611350600061218f565b565b6000600a60009054906101000a900473ffffffffffffffffffffffffffffffffffffffff16905090565b60606001805461138b906134a7565b80601f01602080910402602001604051908101604052809291908181526020018280546113b7906134a7565b80156114045780601f106113d957610100808354040283529160200191611404565b820191906000526020600020905b8154815290600101906020018083116113e757829003601f168201915b5050505050905090565b61142061141961195b565b8383612255565b5050565b600061271d54905090565b61144061143a61195b565b83611a1c565b61147f576040517f08c379a0000000000000000000000000000000000000000000000000000000008152600401611476906138b1565b60405180910390fd5b61148b848484846123c2565b50505050565b606061149c826118ef565b6114db576040517f08c379a00000000000000000000000000000000000000000000000000000000081526004016114d290614122565b60405180910390fd5b60006114e561241e565b905060008151116115055760405180602001604052806000815250611530565b8061150f846124b1565b60405160200161152092919061417e565b6040516020818303038152906040525b915050919050565b61154061195b565b73ffffffffffffffffffffffffffffffffffffffff1661155e611352565b73ffffffffffffffffffffffffffffffffffffffff16146115b4576040517f08c379a00000000000000000000000000000000000000000000000000000000081526004016115ab906136db565b60405180910390fd5b6000151561272260009054906101000a900460ff1615151461160b576040517f08c379a0000000000000000000000000000000000000000000000000000000008152600401611602906141ee565b60405180910390fd5b60026127235410611651576040517f08c379a00000000000000000000000000000000000000000000000000000000081526004016116489061425a565b60405180910390fd5b600080600091505b60148210156116c35761166a611d56565b905061169961271e60009054906101000a900473ffffffffffffffffffffffffffffffffffffffff1682611eb0565b600161271c546116a99190613d08565b61271c8190555081806116bb90613d5e565b925050611659565b6001612723546116d39190613d08565b612723819055505050565b600061271c54905090565b6000600560008473ffffffffffffffffffffffffffffffffffffffff1673ffffffffffffffffffffffffffffffffffffffff16815260200190815260200160002060008373ffffffffffffffffffffffffffffffffffffffff1673ffffffffffffffffffffffffffffffffffffffff16815260200190815260200160002060009054906101000a900460ff16905092915050565b61178561195b565b73ffffffffffffffffffffffffffffffffffffffff166117a3611352565b73ffffffffffffffffffffffffffffffffffffffff16146117f9576040517f08c379a00000000000000000000000000000000000000000000000000000000081526004016117f0906136db565b60405180910390fd5b600073ffffffffffffffffffffffffffffffffffffffff168173ffffffffffffffffffffffffffffffffffffffff161415611869576040517f08c379a0000000000000000000000000000000000000000000000000000000008152600401611860906142ec565b60405180910390fd5b6118728161218f565b50565b60007f780e9d63000000000000000000000000000000000000000000000000000000007bffffffffffffffffffffffffffffffffffffffffffffffffffffffff1916827bffffffffffffffffffffffffffffffffffffffffffffffffffffffff191614806118e857506118e782612612565b5b9050919050565b60008073ffffffffffffffffffffffffffffffffffffffff166002600084815260200190815260200160002060009054906101000a900473ffffffffffffffffffffffffffffffffffffffff1673ffffffffffffffffffffffffffffffffffffffff1614159050919050565b600033905090565b816004600083815260200190815260200160002060006101000a81548173ffffffffffffffffffffffffffffffffffffffff021916908373ffffffffffffffffffffffffffffffffffffffff160217905550808273ffffffffffffffffffffffffffffffffffffffff166119d683611160565b73ffffffffffffffffffffffffffffffffffffffff167f8c5be1e5ebec7d5bd14f71427d1e84f3dd0314c0f7b2291e5b200ac8c7c3b92560405160405180910390a45050565b6000611a27826118ef565b611a66576040517f08c379a0000000000000000000000000000000000000000000000000000000008152600401611a5d9061437e565b60405180910390fd5b6000611a7183611160565b90508073ffffffffffffffffffffffffffffffffffffffff168473ffffffffffffffffffffffffffffffffffffffff161480611ae057508373ffffffffffffffffffffffffffffffffffffffff16611ac88461077d565b73ffffffffffffffffffffffffffffffffffffffff16145b80611af15750611af081856116e9565b5b91505092915050565b8273ffffffffffffffffffffffffffffffffffffffff16611b1a82611160565b73ffffffffffffffffffffffffffffffffffffffff1614611b70576040517f08c379a0000000000000000000000000000000000000000000000000000000008152600401611b6790614410565b60405180910390fd5b600073ffffffffffffffffffffffffffffffffffffffff168273ffffffffffffffffffffffffffffffffffffffff161415611be0576040517f08c379a0000000000000000000000000000000000000000000000000000000008152600401611bd7906144a2565b60405180910390fd5b611beb8383836126f4565b611bf6600082611963565b6001600360008573ffffffffffffffffffffffffffffffffffffffff1673ffffffffffffffffffffffffffffffffffffffff1681526020019081526020016000206000828254611c469190613ba2565b925050819055506001600360008473ffffffffffffffffffffffffffffffffffffffff1673ffffffffffffffffffffffffffffffffffffffff1681526020019081526020016000206000828254611c9d9190613d08565b92505081905550816002600083815260200190815260200160002060006101000a81548173ffffffffffffffffffffffffffffffffffffffff021916908373ffffffffffffffffffffffffffffffffffffffff160217905550808273ffffffffffffffffffffffffffffffffffffffff168473ffffffffffffffffffffffffffffffffffffffff167fddf252ad1be2c89b69c2b068fc378daa952ba7f163c4a11628f55a4df523b3ef60405160405180910390a4505050565b60008061271c54612710611d6a9190613ba2565b9050600081600b54334442604051602001611d88949392919061452b565b6040516020818303038152906040528051906020012060001c611dab9190614579565b9050600080600c836127108110611dc557611dc4613ecb565b5b015414611dea57600c826127108110611de157611de0613ecb565b5b01549050611dee565b8190505b6000600c600185611dff9190613ba2565b6127108110611e1157611e10613ecb565b5b01541415611e4557600183611e269190613ba2565b600c836127108110611e3b57611e3a613ecb565b5b0181905550611e83565b600c600184611e549190613ba2565b6127108110611e6657611e65613ecb565b5b0154600c836127108110611e7d57611e7c613ecb565b5b01819055505b600b6000815480929190611e9690613d5e565b9190505550600181611ea89190613d08565b935050505090565b600073ffffffffffffffffffffffffffffffffffffffff168273ffffffffffffffffffffffffffffffffffffffff161415611f20576040517f08c379a0000000000000000000000000000000000000000000000000000000008152600401611f17906145f6565b60405180910390fd5b611f29816118ef565b15611f69576040517f08c379a0000000000000000000000000000000000000000000000000000000008152600401611f6090614662565b60405180910390fd5b611f75600083836126f4565b6001600360008473ffffffffffffffffffffffffffffffffffffffff1673ffffffffffffffffffffffffffffffffffffffff1681526020019081526020016000206000828254611fc59190613d08565b92505081905550816002600083815260200190815260200160002060006101000a81548173ffffffffffffffffffffffffffffffffffffffff021916908373ffffffffffffffffffffffffffffffffffffffff160217905550808273ffffffffffffffffffffffffffffffffffffffff16600073ffffffffffffffffffffffffffffffffffffffff167fddf252ad1be2c89b69c2b068fc378daa952ba7f163c4a11628f55a4df523b3ef60405160405180910390a45050565b600061208982611160565b9050612097816000846126f4565b6120a2600083611963565b6001600360008373ffffffffffffffffffffffffffffffffffffffff1673ffffffffffffffffffffffffffffffffffffffff16815260200190815260200160002060008282546120f29190613ba2565b925050819055506002600083815260200190815260200160002060006101000a81549073ffffffffffffffffffffffffffffffffffffffff021916905581600073ffffffffffffffffffffffffffffffffffffffff168273ffffffffffffffffffffffffffffffffffffffff167fddf252ad1be2c89b69c2b068fc378daa952ba7f163c4a11628f55a4df523b3ef60405160405180910390a45050565b6000600a60009054906101000a900473ffffffffffffffffffffffffffffffffffffffff16905081600a60006101000a81548173ffffffffffffffffffffffffffffffffffffffff021916908373ffffffffffffffffffffffffffffffffffffffff1602179055508173ffffffffffffffffffffffffffffffffffffffff168173ffffffffffffffffffffffffffffffffffffffff167f8be0079c531659141344cd1fd0a4f28419497f9722a3daafe3b4186f6b6457e060405160405180910390a35050565b8173ffffffffffffffffffffffffffffffffffffffff168373ffffffffffffffffffffffffffffffffffffffff1614156122c4576040517f08c379a00000000000000000000000000000000000000000000000000000000081526004016122bb906146ce565b60405180910390fd5b80600560008573ffffffffffffffffffffffffffffffffffffffff1673ffffffffffffffffffffffffffffffffffffffff16815260200190815260200160002060008473ffffffffffffffffffffffffffffffffffffffff1673ffffffffffffffffffffffffffffffffffffffff16815260200190815260200160002060006101000a81548160ff0219169083151502179055508173ffffffffffffffffffffffffffffffffffffffff168373ffffffffffffffffffffffffffffffffffffffff167f17307eab39ab6107e8899845ad3d59bd9653f200f220920489ca2b5937696c31836040516123b59190612e7f565b60405180910390a3505050565b6123cd848484611afa565b6123d984848484612704565b612418576040517f08c379a000000000000000000000000000000000000000000000000000000000815260040161240f90614760565b60405180910390fd5b50505050565b6060612721805461242e906134a7565b80601f016020809104026020016040519081016040528092919081815260200182805461245a906134a7565b80156124a75780601f1061247c576101008083540402835291602001916124a7565b820191906000526020600020905b81548152906001019060200180831161248a57829003601f168201915b5050505050905090565b606060008214156124f9576040518060400160405280600181526020017f3000000000000000000000000000000000000000000000000000000000000000815250905061260d565b600082905060005b6000821461252b57808061251490613d5e565b915050600a82612524919061392f565b9150612501565b60008167ffffffffffffffff81111561254757612546613107565b5b6040519080825280601f01601f1916602001820160405280156125795781602001600182028036833780820191505090505b5090505b60008514612606576001826125929190613ba2565b9150600a856125a19190614579565b60306125ad9190613d08565b60f81b8183815181106125c3576125c2613ecb565b5b60200101907effffffffffffffffffffffffffffffffffffffffffffffffffffffffffffff1916908160001a905350600a856125ff919061392f565b945061257d565b8093505050505b919050565b60007f80ac58cd000000000000000000000000000000000000000000000000000000007bffffffffffffffffffffffffffffffffffffffffffffffffffffffff1916827bffffffffffffffffffffffffffffffffffffffffffffffffffffffff191614806126dd57507f5b5e139f000000000000000000000000000000000000000000000000000000007bffffffffffffffffffffffffffffffffffffffffffffffffffffffff1916827bffffffffffffffffffffffffffffffffffffffffffffffffffffffff1916145b806126ed57506126ec8261288c565b5b9050919050565b6126ff8383836128f6565b505050565b60006127258473ffffffffffffffffffffffffffffffffffffffff16612a0a565b1561287f578373ffffffffffffffffffffffffffffffffffffffff1663150b7a0261274e61195b565b8786866040518563ffffffff1660e01b815260040161277094939291906147d5565b6020604051808303816000875af19250505080156127ac57506040513d601f19601f820116820180604052508101906127a99190614836565b60015b61282f573d80600081146127dc576040519150601f19603f3d011682016040523d82523d6000602084013e6127e1565b606091505b50600081511415612827576040517f08c379a000000000000000000000000000000000000000000000000000000000815260040161281e90614760565b60405180910390fd5b805181602001fd5b63150b7a0260e01b7bffffffffffffffffffffffffffffffffffffffffffffffffffffffff1916817bffffffffffffffffffffffffffffffffffffffffffffffffffffffff191614915050612884565b600190505b949350505050565b60007f01ffc9a7000000000000000000000000000000000000000000000000000000007bffffffffffffffffffffffffffffffffffffffffffffffffffffffff1916827bffffffffffffffffffffffffffffffffffffffffffffffffffffffff1916149050919050565b612901838383612a1d565b600073ffffffffffffffffffffffffffffffffffffffff168373ffffffffffffffffffffffffffffffffffffffff1614156129445761293f81612a22565b612983565b8173ffffffffffffffffffffffffffffffffffffffff168373ffffffffffffffffffffffffffffffffffffffff1614612982576129818382612a6b565b5b5b600073ffffffffffffffffffffffffffffffffffffffff168273ffffffffffffffffffffffffffffffffffffffff1614156129c6576129c181612bd8565b612a05565b8273ffffffffffffffffffffffffffffffffffffffff168273ffffffffffffffffffffffffffffffffffffffff1614612a0457612a038282612ca9565b5b5b505050565b600080823b905060008111915050919050565b505050565b6008805490506009600083815260200190815260200160002081905550600881908060018154018082558091505060019003906000526020600020016000909190919091505550565b60006001612a7884611212565b612a829190613ba2565b9050600060076000848152602001908152602001600020549050818114612b67576000600660008673ffffffffffffffffffffffffffffffffffffffff1673ffffffffffffffffffffffffffffffffffffffff168152602001908152602001600020600084815260200190815260200160002054905080600660008773ffffffffffffffffffffffffffffffffffffffff1673ffffffffffffffffffffffffffffffffffffffff168152602001908152602001600020600084815260200190815260200160002081905550816007600083815260200190815260200160002081905550505b6007600084815260200190815260200160002060009055600660008573ffffffffffffffffffffffffffffffffffffffff1673ffffffffffffffffffffffffffffffffffffffff16815260200190815260200160002060008381526020019081526020016000206000905550505050565b60006001600880549050612bec9190613ba2565b9050600060096000848152602001908152602001600020549050600060088381548110612c1c57612c1b613ecb565b5b906000526020600020015490508060088381548110612c3e57612c3d613ecb565b5b906000526020600020018190555081600960008381526020019081526020016000208190555060096000858152602001908152602001600020600090556008805480612c8d57612c8c614863565b5b6001900381819060005260206000200160009055905550505050565b6000612cb483611212565b905081600660008573ffffffffffffffffffffffffffffffffffffffff1673ffffffffffffffffffffffffffffffffffffffff168152602001908152602001600020600083815260200190815260200160002081905550806007600084815260200190815260200160002081905550505050565b828054612d34906134a7565b90600052602060002090601f016020900481019282612d565760008555612d9d565b82601f10612d6f57805160ff1916838001178555612d9d565b82800160010185558215612d9d579182015b82811115612d9c578251825591602001919060010190612d81565b5b509050612daa9190612dae565b5090565b5b80821115612dc7576000816000905550600101612daf565b5090565b6000604051905090565b600080fd5b600080fd5b60007fffffffff0000000000000000000000000000000000000000000000000000000082169050919050565b612e1481612ddf565b8114612e1f57600080fd5b50565b600081359050612e3181612e0b565b92915050565b600060208284031215612e4d57612e4c612dd5565b5b6000612e5b84828501612e22565b91505092915050565b60008115159050919050565b612e7981612e64565b82525050565b6000602082019050612e946000830184612e70565b92915050565b600081519050919050565b600082825260208201905092915050565b60005b83811015612ed4578082015181840152602081019050612eb9565b83811115612ee3576000848401525b50505050565b6000601f19601f8301169050919050565b6000612f0582612e9a565b612f0f8185612ea5565b9350612f1f818560208601612eb6565b612f2881612ee9565b840191505092915050565b60006020820190508181036000830152612f4d8184612efa565b905092915050565b6000819050919050565b612f6881612f55565b8114612f7357600080fd5b50565b600081359050612f8581612f5f565b92915050565b600060208284031215612fa157612fa0612dd5565b5b6000612faf84828501612f76565b91505092915050565b600073ffffffffffffffffffffffffffffffffffffffff82169050919050565b6000612fe382612fb8565b9050919050565b612ff381612fd8565b82525050565b600060208201905061300e6000830184612fea565b92915050565b61301d81612fd8565b811461302857600080fd5b50565b60008135905061303a81613014565b92915050565b6000806040838503121561305757613056612dd5565b5b60006130658582860161302b565b925050602061307685828601612f76565b9150509250929050565b61308981612f55565b82525050565b60006020820190506130a46000830184613080565b92915050565b6000806000606084860312156130c3576130c2612dd5565b5b60006130d18682870161302b565b93505060206130e28682870161302b565b92505060406130f386828701612f76565b9150509250925092565b600080fd5b600080fd5b7f4e487b7100000000000000000000000000000000000000000000000000000000600052604160045260246000fd5b61313f82612ee9565b810181811067ffffffffffffffff8211171561315e5761315d613107565b5b80604052505050565b6000613171612dcb565b905061317d8282613136565b919050565b600067ffffffffffffffff82111561319d5761319c613107565b5b6131a682612ee9565b9050602081019050919050565b82818337600083830152505050565b60006131d56131d084613182565b613167565b9050828152602081018484840111156131f1576131f0613102565b5b6131fc8482856131b3565b509392505050565b600082601f830112613219576132186130fd565b5b81356132298482602086016131c2565b91505092915050565b60006020828403121561324857613247612dd5565b5b600082013567ffffffffffffffff81111561326657613265612dda565b5b61327284828501613204565b91505092915050565b60006020828403121561329157613290612dd5565b5b600061329f8482850161302b565b91505092915050565b6132b181612e64565b81146132bc57600080fd5b50565b6000813590506132ce816132a8565b92915050565b600080604083850312156132eb576132ea612dd5565b5b60006132f98582860161302b565b925050602061330a858286016132bf565b9150509250929050565b600067ffffffffffffffff82111561332f5761332e613107565b5b61333882612ee9565b9050602081019050919050565b600061335861335384613314565b613167565b90508281526020810184848401111561337457613373613102565b5b61337f8482856131b3565b509392505050565b600082601f83011261339c5761339b6130fd565b5b81356133ac848260208601613345565b91505092915050565b600080600080608085870312156133cf576133ce612dd5565b5b60006133dd8782880161302b565b94505060206133ee8782880161302b565b93505060406133ff87828801612f76565b925050606085013567ffffffffffffffff8111156134205761341f612dda565b5b61342c87828801613387565b91505092959194509250565b6000806040838503121561344f5761344e612dd5565b5b600061345d8582860161302b565b925050602061346e8582860161302b565b9150509250929050565b7f4e487b7100000000000000000000000000000000000000000000000000000000600052602260045260246000fd5b600060028204905060018216806134bf57607f821691505b602082108114156134d3576134d2613478565b5b50919050565b7f4552433732313a20617070726f76656420717565727920666f72206e6f6e657860008201527f697374656e7420746f6b656e0000000000000000000000000000000000000000602082015250565b6000613535602c83612ea5565b9150613540826134d9565b604082019050919050565b6000602082019050818103600083015261356481613528565b9050919050565b7f4552433732313a20617070726f76616c20746f2063757272656e74206f776e6560008201527f7200000000000000000000000000000000000000000000000000000000000000602082015250565b60006135c7602183612ea5565b91506135d28261356b565b604082019050919050565b600060208201905081810360008301526135f6816135ba565b9050919050565b7f4552433732313a20617070726f76652063616c6c6572206973206e6f74206f7760008201527f6e6572206e6f7220617070726f76656420666f7220616c6c0000000000000000602082015250565b6000613659603883612ea5565b9150613664826135fd565b604082019050919050565b600060208201905081810360008301526136888161364c565b9050919050565b7f4f776e61626c653a2063616c6c6572206973206e6f7420746865206f776e6572600082015250565b60006136c5602083612ea5565b91506136d08261368f565b602082019050919050565b600060208201905081810360008301526136f4816136b8565b9050919050565b7f53616c652068617320616c726561647920737461727465640000000000000000600082015250565b6000613731601883612ea5565b915061373c826136fb565b602082019050919050565b6000602082019050818103600083015261376081613724565b9050919050565b7f555249206e6f7420736574000000000000000000000000000000000000000000600082015250565b600061379d600b83612ea5565b91506137a882613767565b602082019050919050565b600060208201905081810360008301526137cc81613790565b9050919050565b7f507269636520746f6f206c6f7700000000000000000000000000000000000000600082015250565b6000613809600d83612ea5565b9150613814826137d3565b602082019050919050565b60006020820190508181036000830152613838816137fc565b9050919050565b7f4552433732313a207472616e736665722063616c6c6572206973206e6f74206f60008201527f776e6572206e6f7220617070726f766564000000000000000000000000000000602082015250565b600061389b603183612ea5565b91506138a68261383f565b604082019050919050565b600060208201905081810360008301526138ca8161388e565b9050919050565b7f4e487b7100000000000000000000000000000000000000000000000000000000600052601260045260246000fd5b7f4e487b7100000000000000000000000000000000000000000000000000000000600052601160045260246000fd5b600061393a82612f55565b915061394583612f55565b925082613955576139546138d1565b5b828204905092915050565b7f455243373231456e756d657261626c653a206f776e657220696e646578206f7560008201527f74206f6620626f756e6473000000000000000000000000000000000000000000602082015250565b60006139bc602b83612ea5565b91506139c782613960565b604082019050919050565b600060208201905081810360008301526139eb816139af565b9050919050565b7f53616c6520686173206e6f742073746172746564207965740000000000000000600082015250565b6000613a28601883612ea5565b9150613a33826139f2565b602082019050919050565b60006020820190508181036000830152613a5781613a1b565b9050919050565b7f4e6f20546f6b656e73206c65667420696e20746865206e657374000000000000600082015250565b6000613a94601a83612ea5565b9150613a9f82613a5e565b602082019050919050565b60006020820190508181036000830152613ac381613a87565b9050919050565b7f4d757374206d696e74206174206c65617374206f6e6500000000000000000000600082015250565b6000613b00601683612ea5565b9150613b0b82613aca565b602082019050919050565b60006020820190508181036000830152613b2f81613af3565b9050919050565b7f547279696e6720746f206d696e7420746f6f206d616e79000000000000000000600082015250565b6000613b6c601783612ea5565b9150613b7782613b36565b602082019050919050565b60006020820190508181036000830152613b9b81613b5f565b9050919050565b6000613bad82612f55565b9150613bb883612f55565b925082821015613bcb57613bca613900565b5b828203905092915050565b7f4e6f7420656e6f75676820546f6b656e73206c65667420746f206d696e740000600082015250565b6000613c0c601e83612ea5565b9150613c1782613bd6565b602082019050919050565b60006020820190508181036000830152613c3b81613bff565b9050919050565b6000613c4d82612f55565b9150613c5883612f55565b9250817fffffffffffffffffffffffffffffffffffffffffffffffffffffffffffffffff0483118215151615613c9157613c90613900565b5b828202905092915050565b7f6d73672e76616c756520746f6f206c6f77000000000000000000000000000000600082015250565b6000613cd2601183612ea5565b9150613cdd82613c9c565b602082019050919050565b60006020820190508181036000830152613d0181613cc5565b9050919050565b6000613d1382612f55565b9150613d1e83612f55565b9250827fffffffffffffffffffffffffffffffffffffffffffffffffffffffffffffffff03821115613d5357613d52613900565b5b828201905092915050565b6000613d6982612f55565b91507fffffffffffffffffffffffffffffffffffffffffffffffffffffffffffffffff821415613d9c57613d9b613900565b5b600182019050919050565b7f4552433732314275726e61626c653a2063616c6c6572206973206e6f74206f7760008201527f6e6572206e6f7220617070726f76656400000000000000000000000000000000602082015250565b6000613e03603083612ea5565b9150613e0e82613da7565b604082019050919050565b60006020820190508181036000830152613e3281613df6565b9050919050565b7f455243373231456e756d657261626c653a20676c6f62616c20696e646578206f60008201527f7574206f6620626f756e64730000000000000000000000000000000000000000602082015250565b6000613e95602c83612ea5565b9150613ea082613e39565b604082019050919050565b60006020820190508181036000830152613ec481613e88565b9050919050565b7f4e487b7100000000000000000000000000000000000000000000000000000000600052603260045260246000fd5b7f43616e2774206368616e6765206d65746164617461206166746572207468652060008201527f73616c6520686173207374617274656400000000000000000000000000000000602082015250565b6000613f56603083612ea5565b9150613f6182613efa565b604082019050919050565b60006020820190508181036000830152613f8581613f49565b9050919050565b7f4552433732313a206f776e657220717565727920666f72206e6f6e657869737460008201527f656e7420746f6b656e0000000000000000000000000000000000000000000000602082015250565b6000613fe8602983612ea5565b9150613ff382613f8c565b604082019050919050565b6000602082019050818103600083015261401781613fdb565b9050919050565b7f4552433732313a2062616c616e636520717565727920666f7220746865207a6560008201527f726f206164647265737300000000000000000000000000000000000000000000602082015250565b600061407a602a83612ea5565b91506140858261401e565b604082019050919050565b600060208201905081810360008301526140a98161406d565b9050919050565b7f4552433732314d657461646174613a2055524920717565727920666f72206e6f60008201527f6e6578697374656e7420746f6b656e0000000000000000000000000000000000602082015250565b600061410c602f83612ea5565b9150614117826140b0565b604082019050919050565b6000602082019050818103600083015261413b816140ff565b9050919050565b600081905092915050565b600061415882612e9a565b6141628185614142565b9350614172818560208601612eb6565b80840191505092915050565b600061418a828561414d565b9150614196828461414d565b91508190509392505050565b7f53616c6520737461727465640000000000000000000000000000000000000000600082015250565b60006141d8600c83612ea5565b91506141e3826141a2565b602082019050919050565b60006020820190508181036000830152614207816141cb565b9050919050565b7f44657620737570706c7920616c72656164792061776172646564000000000000600082015250565b6000614244601a83612ea5565b915061424f8261420e565b602082019050919050565b6000602082019050818103600083015261427381614237565b9050919050565b7f4f776e61626c653a206e6577206f776e657220697320746865207a65726f206160008201527f6464726573730000000000000000000000000000000000000000000000000000602082015250565b60006142d6602683612ea5565b91506142e18261427a565b604082019050919050565b60006020820190508181036000830152614305816142c9565b9050919050565b7f4552433732313a206f70657261746f7220717565727920666f72206e6f6e657860008201527f697374656e7420746f6b656e0000000000000000000000000000000000000000602082015250565b6000614368602c83612ea5565b91506143738261430c565b604082019050919050565b600060208201905081810360008301526143978161435b565b9050919050565b7f4552433732313a207472616e73666572206f6620746f6b656e2074686174206960008201527f73206e6f74206f776e0000000000000000000000000000000000000000000000602082015250565b60006143fa602983612ea5565b91506144058261439e565b604082019050919050565b60006020820190508181036000830152614429816143ed565b9050919050565b7f4552433732313a207472616e7366657220746f20746865207a65726f2061646460008201527f7265737300000000000000000000000000000000000000000000000000000000602082015250565b600061448c602483612ea5565b915061449782614430565b604082019050919050565b600060208201905081810360008301526144bb8161447f565b9050919050565b6000819050919050565b6144dd6144d882612f55565b6144c2565b82525050565b60008160601b9050919050565b60006144fb826144e3565b9050919050565b600061450d826144f0565b9050919050565b61452561452082612fd8565b614502565b82525050565b600061453782876144cc565b6020820191506145478286614514565b60148201915061455782856144cc565b60208201915061456782846144cc565b60208201915081905095945050505050565b600061458482612f55565b915061458f83612f55565b92508261459f5761459e6138d1565b5b828206905092915050565b7f4552433732313a206d696e7420746f20746865207a65726f2061646472657373600082015250565b60006145e0602083612ea5565b91506145eb826145aa565b602082019050919050565b6000602082019050818103600083015261460f816145d3565b9050919050565b7f4552433732313a20746f6b656e20616c7265616479206d696e74656400000000600082015250565b600061464c601c83612ea5565b915061465782614616565b602082019050919050565b6000602082019050818103600083015261467b8161463f565b9050919050565b7f4552433732313a20617070726f766520746f2063616c6c657200000000000000600082015250565b60006146b8601983612ea5565b91506146c382614682565b602082019050919050565b600060208201905081810360008301526146e7816146ab565b9050919050565b7f4552433732313a207472616e7366657220746f206e6f6e20455243373231526560008201527f63656976657220696d706c656d656e7465720000000000000000000000000000602082015250565b600061474a603283612ea5565b9150614755826146ee565b604082019050919050565b600060208201905081810360008301526147798161473d565b9050919050565b600081519050919050565b600082825260208201905092915050565b60006147a782614780565b6147b1818561478b565b93506147c1818560208601612eb6565b6147ca81612ee9565b840191505092915050565b60006080820190506147ea6000830187612fea565b6147f76020830186612fea565b6148046040830185613080565b8181036060830152614816818461479c565b905095945050505050565b60008151905061483081612e0b565b92915050565b60006020828403121561484c5761484b612dd5565b5b600061485a84828501614821565b91505092915050565b7f4e487b7100000000000000000000000000000000000000000000000000000000600052603160045260246000fdfea26469706673582212202d206d5f926f88ab1617218cfa2e58545ada89fd6bbd323ae26c8a8881df2f0964736f6c634300080a0033",
  "immutableReferences": {},
  "source": "// SPDX-License-Identifier: MIT\r\n\r\npragma solidity ^0.8.0;\r\n\r\nimport \"@openzeppelin/contracts/token/ERC721/ERC721.sol\";\r\nimport \"@openzeppelin/contracts/token/ERC721/extensions/ERC721Enumerable.sol\";\r\nimport \"@openzeppelin/contracts/token/ERC721/extensions/ERC721Burnable.sol\";\r\nimport \"@openzeppelin/contracts/utils/Context.sol\";\r\nimport \"@openzeppelin/contracts/token/ERC20/IERC20.sol\";\r\nimport \"@openzeppelin/contracts/access/Ownable.sol\";\r\n\r\n\r\n\r\n// \r\n// \r\n// \r\n// \r\n// \r\n// \r\n// weregassed@gmail.com\r\n\r\n\r\ncontract TheNewResistance is Context, ERC721Enumerable, ERC721Burnable, Ownable {\r\n    uint internal constant MAX_MINTS_PER_TRANSACTION = 20;\r\n    uint internal constant TOKEN_LIMIT = 10000;\r\n\r\n    uint private nonce = 0;\r\n    uint[TOKEN_LIMIT] private indices;\r\n    uint private numTokens = 0;\r\n    \r\n    uint256 internal _mintPrice = 0;\r\n    \r\n    address payable internal devteam = payable(0x1511637D85E85e4EF4c162844A0a3D4D4fe2e5a4); \r\n    address payable internal A = payable(0x630cE4d80eF8712DFFd1A38fe390683b675Ab48a);\r\n    address payable internal B = payable(0xc4c746E4783E2eCd4610dC798874a8a765a724C0);\r\n\r\n    string internal _baseTokenURI;\r\n    bool internal saleStarted = false;\r\n    bool internal URISet = false;\r\n    uint internal devSupplyAwarded = 0;\r\n\r\n    /**\r\n     * Token URIs will be autogenerated based on `baseURI` and their token IDs.\r\n     * See {ERC721-tokenURI}.\r\n     */\r\n    constructor(string memory name, string memory symbol,string memory baseTokenURI) ERC721(name, symbol) {\r\n         _baseTokenURI = baseTokenURI;\r\n        //dont call awardDevs() here, initial supply here, too much gas for one transaction\r\n    }\r\n\r\n    function _baseURI() internal view virtual override returns (string memory) {\r\n        return _baseTokenURI;\r\n    }   \r\n    \r\n    /**\r\n    * Can only be called twice. Gives 40 total Tokens to devs for giveaways, marketing purposes and team members.\r\n    */\r\n    function ToDevs() external onlyOwner {\r\n        require(saleStarted == false,\"Sale started\");\r\n        require(devSupplyAwarded < 2,\"Dev supply already awarded\");\r\n        uint i;\r\n        uint id;\r\n\r\n        for(i = 0; i < 20; i++){\r\n            id = randomIndex();\r\n            _mint(devteam, id);\r\n            numTokens = numTokens +1;\r\n        }\r\n\r\n        devSupplyAwarded = devSupplyAwarded+1;\r\n    } \r\n    function randomIndex() internal returns (uint) {\r\n        uint totalSize = TOKEN_LIMIT - numTokens;\r\n        uint index = uint(keccak256(abi.encodePacked(nonce, msg.sender, block.difficulty, block.timestamp))) % totalSize;\r\n        uint value = 0;\r\n\r\n        if (indices[index] != 0) {\r\n            value = indices[index];\r\n        } else {\r\n            value = index;\r\n        }\r\n\r\n        // Move last value to selected position\r\n        if (indices[totalSize - 1] == 0) {\r\n            // Array position not initialized, so use position\r\n            indices[index] = totalSize - 1;\r\n        } else {\r\n            // Array position holds a value so use that\r\n            indices[index] = indices[totalSize - 1];\r\n        }\r\n        nonce++;\r\n        // Don't allow a zero index, start counting at 1\r\n        return value+1;\r\n    }\r\n    \r\n    /**\r\n     * @dev Creates a new token. Its token ID will be automatically\r\n     * assigned (and available on the emitted {IERC721-Transfer} event), and the token\r\n     * URI autogenerated based on the base URI passed at construction.\r\n     *\r\n     * See {ERC721-_mint}.\r\n     * \r\n     */\r\n    function mint(address to, uint amount) external payable{\r\n        //check sale start\r\n        require(saleStarted == true, \"Sale has not started yet\");\r\n\r\n        //only 10000 Tokens\r\n        require(numTokens < TOKEN_LIMIT, \"No Tokens left in the nest\");\r\n\r\n        //mint at least one\r\n        require(amount > 0, \"Must mint at least one\");\r\n\r\n        //32 max per transaction\r\n        require(amount <= MAX_MINTS_PER_TRANSACTION, \"Trying to mint too many\");\r\n\r\n        //dont overmint\r\n        require(amount <= TOKEN_LIMIT-numTokens,\"Not enough Tokens left to mint\");\r\n\r\n        //check payment\r\n        require(msg.value >= _mintPrice * amount, \"msg.value too low\");\r\n\r\n        uint id;\r\n        uint i;\r\n\r\n        for(i = 0; i < amount; i++){\r\n            id = randomIndex();\r\n            _mint(to, id);\r\n            numTokens = numTokens + 1;\r\n        }\r\n\r\n    }\r\n\r\n\r\n    function withdrawFunds() external virtual {\r\n        uint256 halfBalance = address(this).balance / 2;\r\n        uint256 HalfOfHalfBalance = halfBalance / 2;\r\n        devteam.transfer(halfBalance);\r\n        A.transfer(HalfOfHalfBalance);\r\n        B.transfer(HalfOfHalfBalance);\r\n    }\r\n\r\n    /**\r\n    * Devs cant change URI after the sale begins \r\n    */\r\n    function setBaseURI(string memory baseTokenURI) external onlyOwner {\r\n        require(saleStarted == false,\"Can't change metadata after the sale has started\");\r\n        _baseTokenURI = baseTokenURI;\r\n        URISet = true;\r\n    }\r\n\r\n    /**\r\n    * Start the sale (cant be stopped later)\r\n    */\r\n    function startSale(uint256 mintPrice) external virtual onlyOwner {\r\n        require(saleStarted == false,\"Sale has already started\");\r\n        require(URISet == true, \"URI not set\");\r\n        require(mintPrice > 0.06 ether,\"Price too low\");\r\n        _mintPrice = mintPrice;\r\n        saleStarted = true;\r\n    }\r\n\r\n    function _beforeTokenTransfer(address from, address to, uint256 tokenId) internal virtual override(ERC721, ERC721Enumerable) {\r\n        super._beforeTokenTransfer(from, to, tokenId);\r\n    }\r\n\r\n    /**\r\n     * @dev See {IERC165-supportsInterface}.\r\n     */\r\n    function supportsInterface(bytes4 interfaceId) public view virtual override(ERC721, ERC721Enumerable) returns (bool) {\r\n        return super.supportsInterface(interfaceId);\r\n    }\r\n\r\n    function getAmountMinted() external view returns (uint256) {\r\n        return numTokens;\r\n    }\r\n\r\n    function getMaxSupply() external pure returns (uint256) {\r\n        return TOKEN_LIMIT;\r\n    }\r\n\r\n    function getMintPrice() external view returns (uint256) {\r\n        return _mintPrice;\r\n    }\r\n\r\n    function hasSaleStarted() external view returns (bool) {\r\n        return saleStarted;\r\n    }\r\n\r\n}",
  "sourcePath": "F:\\docker\\testnet\\contracts\\tnrcontract.sol",
  "compiler": {
    "name": "solc",
    "version": "0.8.10+commit.fc410830.Emscripten.clang"
  },
  "schemaVersion": "3.4.3",
  "updatedAt": "2021-12-01T22:17:29.567Z",
  "networkType": "ethereum",
  "devdoc": {
    "kind": "dev",
    "methods": {
      "approve(address,uint256)": {
        "details": "See {IERC721-approve}."
      },
      "balanceOf(address)": {
        "details": "See {IERC721-balanceOf}."
      },
      "burn(uint256)": {
        "details": "Burns `tokenId`. See {ERC721-_burn}. Requirements: - The caller must own `tokenId` or be an approved operator."
      },
      "getApproved(uint256)": {
        "details": "See {IERC721-getApproved}."
      },
      "isApprovedForAll(address,address)": {
        "details": "See {IERC721-isApprovedForAll}."
      },
      "mint(address,uint256)": {
        "details": "Creates a new token. Its token ID will be automatically assigned (and available on the emitted {IERC721-Transfer} event), and the token URI autogenerated based on the base URI passed at construction. See {ERC721-_mint}. "
      },
      "name()": {
        "details": "See {IERC721Metadata-name}."
      },
      "owner()": {
        "details": "Returns the address of the current owner."
      },
      "ownerOf(uint256)": {
        "details": "See {IERC721-ownerOf}."
      },
      "renounceOwnership()": {
        "details": "Leaves the contract without owner. It will not be possible to call `onlyOwner` functions anymore. Can only be called by the current owner. NOTE: Renouncing ownership will leave the contract without an owner, thereby removing any functionality that is only available to the owner."
      },
      "safeTransferFrom(address,address,uint256)": {
        "details": "See {IERC721-safeTransferFrom}."
      },
      "safeTransferFrom(address,address,uint256,bytes)": {
        "details": "See {IERC721-safeTransferFrom}."
      },
      "setApprovalForAll(address,bool)": {
        "details": "See {IERC721-setApprovalForAll}."
      },
      "supportsInterface(bytes4)": {
        "details": "See {IERC165-supportsInterface}."
      },
      "symbol()": {
        "details": "See {IERC721Metadata-symbol}."
      },
      "tokenByIndex(uint256)": {
        "details": "See {IERC721Enumerable-tokenByIndex}."
      },
      "tokenOfOwnerByIndex(address,uint256)": {
        "details": "See {IERC721Enumerable-tokenOfOwnerByIndex}."
      },
      "tokenURI(uint256)": {
        "details": "See {IERC721Metadata-tokenURI}."
      },
      "totalSupply()": {
        "details": "See {IERC721Enumerable-totalSupply}."
      },
      "transferFrom(address,address,uint256)": {
        "details": "See {IERC721-transferFrom}."
      },
      "transferOwnership(address)": {
        "details": "Transfers ownership of the contract to a new account (`newOwner`). Can only be called by the current owner."
      }
    },
    "version": 1
  },
  "userdoc": {
    "kind": "user",
    "methods": {
      "ToDevs()": {
        "notice": "Can only be called twice. Gives 40 total Tokens to devs for giveaways, marketing purposes and team members."
      },
      "constructor": {
        "notice": "Token URIs will be autogenerated based on `baseURI` and their token IDs. See {ERC721-tokenURI}."
      },
      "setBaseURI(string)": {
        "notice": "Devs cant change URI after the sale begins "
      },
      "startSale(uint256)": {
        "notice": "Start the sale (cant be stopped later)"
      }
    },
    "version": 1
  }
}